:100000000A128A11F22F00308A000408840A82073B
:10001000003432342E3441346A34753473347434D9
:100020006534203464346534203448346F34723499
:100030006134003431342E34443469346134203432
:10004000203420342034203433342E3441346E3480
:100050006F34003444346934733470346F3473341F
:1000600069347434693476346F342034493432342A
:100070004334003431342E3441346A3475347334AB
:100080007434653420344634653463346834613400
:10009000003441346A347534733474346534203434
:1000A0006434653420346434693461340034413458
:1000B0006A3475347334743465342034643465348C
:1000C000203441346E346F34003441346A34753432
:1000D00073347434653420346434653420344D34DE
:1000E0006534733400344E346F3420345234653404
:1000F00063346F346E346F346334693464346F3412
:1001000000344F34633475347034613464346F3484
:1001100000344434693467346934743461346C3481
:10012000003432342E344D34653473340034523458
:0A01300065346C346F346A34003417
:1004EE00F20072088312031388000A128A11DB22AB
:1004FE000A128A110800F200720883120313880090
:10050E000A128A11F3220A128A110800F2007208E6
:10051E00BF3EF30073088312031388000A128A1178
:10052E00F3220A128A110800F20072087F3EF300CD
:10053E0073088312031388000A128A11F3220A1217
:10054E008A1108000730FC009030FD00D0300A12EE
:10055E008A119C250A128A110A128A11C9220A12BC
:10056E008A11080083160313871507162830831285
:10057E000313940083160313910109309300803006
:10058E00940008000A128A110B230A128A1183168C
:10059E0003131115D22AD32A000083160313141E37
:1005AE00D92ADA2AD42A080083120313091409154A
:1005BE000730F1007D30F000F00BE32AF10BE32A57
:1005CE008312031309110730F1007D30F000F00B98
:1005DE00EE2AF10BEE2A08008312031309100915F7
:1005EE000730F1007D30F000F00BFB2AF10BFB2AF7
:1005FE008312031309110730F1007D30F000F00B68
:10060E00062BF10B062B0800182B2E30F3000530AD
:10061E00F4007930F50006300A128A1159240A12B4
:10062E008A118316031314191D2B1E2B0C2B110864
:10063E001F39031D232B242B0C2B0800F1007108EE
:10064E0083120313AB007108AA002B08F0000430CC
:10065E000310F00CFF3E031D2F2B7008AB00303043
:10066E00AB070A302A02031C3D2B3E2B4C2B2A08CB
:10067E00F00003300310F00DFF3E031D412B03105D
:10068E00700DAA00AA0E0F30AA053030AA07080076
:10069E005B30F300E730F200F20B532BF30B532BCE
:1006AE00582B38308312031388000A128A11F32252
:1006BE000A128A110730F3007D30F200F20B652B1F
:1006CE00F30B652B0C308312031388000A128A1168
:1006DE00F3220A128A112430F200F20B742B00005E
:1006EE0001308312031388000A128A11F3220A12B0
:1006FE008A112430F200F20B822B000008000A123D
:10070E008A110B230A128A118316031391158F2B4C
:10071E00902B0000831603139119962B972B912B78
:10072E000A128A110B230A128A11831603139116C9
:10073E00A02BA12B00000A128A110B230A128A1178
:10074E00831603131116AB2BAC2B00000A128A1161
:10075E000B230A128A11831603131115B62BB72B0E
:10076E00000083160313141EBD2BBE2BB82B831251
:10077E0003131308B100080083120313A600260802
:10078E00FC00D130FD00D0300A128A1113260A1255
:10079E008A110A128A1186230A128A1183120313EE
:1007AE0031080A128A1125230A128A1183120313A1
:1007BE0022080A128A119B220A128A11831203132B
:1007CE002A080A128A1177220A128A118312031337
:1007DE0023080A128A119B220A128A11831203130A
:1007EE002B080A128A1177220A128A118312031316
:1007FE0024080A128A119B220A128A1183120313E9
:10080E0025080A128A1177220A128A110800831209
:10081E000313A6002608FC00D130FD00D0300A12CA
:10082E008A1113260A128A110A128A1186230A12B3
:10083E008A118312031331080A128A1125230A1210
:10084E008A118312031322080A128A118D220A12A8
:10085E008A11831203132A080A128A1177220A12A6
:10086E008A118312031323080A128A118D220A1287
:10087E008A11831203132B080A128A1177220A1285
:10088E008A118312031324080A128A118D220A1266
:10089E008A118312031325080A128A1177220A126B
:1008AE008A110800F60076087F3EFB007B08831253
:1008BE00031388000A128A11F3220A128A11F70111
:1008CE00F8017C2C7708730784000A128A11032022
:1008DE000A128A110A128A1177220A128A1101301B
:1008EE00F7070318F80A0030F80777087307840033
:1008FE000A128A1103200A128A11003A031D882C4B
:10090E00892C692C7408BF3EFB007B0883120313ED
:10091E0088000A128A11F3220A128A11F901FA01C9
:10092E00AB2C7908750784000A128A1103200A126B
:10093E008A110A128A1177220A128A110130F907D6
:10094E000318FA0A0030FA077908750784000A12AC
:10095E008A1103200A128A11003A031DB72CB82CF3
:10096E00982C08000C3083120313A2000B30A30046
:10097E000A30A4003A30A50000300A128A11C323AF
:10098E000A128A11093083120313A2000830A30041
:10099E000730A4003A30A50001300A128A11C32391
:1009AE000A128A11063083120313A2000530A30027
:1009BE000430A4002030A50002300A128A11C3238D
:1009CE000A128A110C3083120313A2000B30A300FB
:1009DE000A30A4002D30A50004300A128A110E240C
:1009EE000A128A11093083120313A2000830A300E1
:1009FE000730A4002D30A50005300A128A110E24EE
:100A0E000A128A11063083120313A2000530A300C6
:100A1E000430A4003030A50006300A128A110E24CC
:100A2E000A128A1103300A128A118D220A128A11B1
:100A3E0032300A128A1177220A128A11080083169E
:100A4E00031385018801890183308700FF308600FA
:100A5E0007309C00811383120313850186018701E1
:100A6E00880189010730831603139C009F111F15FF
:100A7E009F140A128A114F230A128A110A128A111E
:100A8E00B9220A128A110A128A11A9220A128A118D
:100A9E008F30F3000530F4008130F50006300A1275
:100AAE008A1159240A128A11103083120313A900D5
:100ABE003930A8000D30A700A70B632DA80B632DAE
:100ACE00A90B632D01300A128A1182220A128A1191
:100ADE00FC01FD01D0300A128A119C250A128A11DE
:100AEE000A128A11C9220A128A110A128A11B9240B
:100AFE000A128A11831203130618862D872D7C2D58
:100B0E0001300A128A1182220A128A110A128A11DD
:100B1E009C260A128A1101300A128A1182220A12A6
:100B2E008A117C2D0A128A11002883120313A10048
:100B3E000A128A110B230A128A1183160313111437
:100B4E00A82DA92D0000831603131118AF2DB02D5B
:100B5E00AA2D0A128A110B230A128A118312031369
:100B6E0021089300A53083120313A000A00BBD2D06
:100B7E00C02D831603131418C52DC62DC02D0A12B1
:100B8E008A110B230A128A11D82D2230F30002305B
:100B9E00F4006B30F50001300A128A1159240A1242
:100BAE008A1183160313111BDD2DDE2DCC2D0A1297
:100BBE008A110B230A128A117C08831203139300E5
:100BCE00A53083120313A000A00BEB2DEE2D831680
:100BDE0003131418F32DF42DEE2D111BF72DF82DF4
:100BEE00F42D0A128A110B230A128A117D08831220
:100BFE0003139300A53083120313A000A00B052E40
:100C0E00082E8316031314180D2E0E2E082E111BEC
:100C1E00112E122E0E2E080083120313A1000A129B
:100C2E008A110B230A128A118316031311141F2E15
:100C3E00202E0000831603131118262E272E212E88
:100C4E000A128A110B230A128A1183120313210826
:100C5E009300A53083120313A000A00B342E372E61
:100C6E008316031314183C2E3D2E372E0A128A11AA
:100C7E000B230A128A1183160313111B472E482EBB
:100C8E00422E0A128A110B230A128A117C08831231
:100C9E0003139300A53083120313A000A00B552E4F
:100CAE00582E8316031314185D2E5E2E582E0A121C
:100CBE008A110B230A128A1183160313111B682E35
:100CCE00692E632E0A128A110B230A128A118316B9
:100CDE0003139114722E732E000083160313911CAE
:100CEE00792E7A2E742E0A128A110B230A128A1169
:100CFE007D08831203139300A53083120313A00003
:100D0E00A00B872E8A2E8316031314188F2E902E67
:100D1E008A2E0A128A110B230A128A1183160313C2
:100D2E00111B9A2E9B2E952E0800EB2F3230F300BE
:100D3E00F401F40A0130F50001300A128A11592427
:100D4E000A128A11831203130619AE2EAF2EEB2F41
:100D5E00033083120313A4008A30A3005530A2007F
:100D6E00A20BB72EA30BB72EA40BB72E01300A126F
:100D7E008A1182220A128A11E42F1230F300F40132
:100D8E00F40A8930F50001300A128A1159240A1228
:100D9E008A11831203130619D52ED62E9A2F0330DD
:100DAE0083120313A4008A30A3005530A200A20BB5
:100DBE00DE2EA30BDE2EA40BDE2E01300A128A11BC
:100DCE0082220A128A1183120313AD01AC01B00103
:100DDE00AF01AE013030AD073030AC07962F413049
:100DEE00F300F401F40A3130F50002300A128A11D0
:100DFE0059240A128A1109300A128A118D220A12F6
:100E0E008A11831203132D080A128A1177220A12ED
:100E1E008A1108300A128A118D220A128A1183123F
:100E2E0003132C080A128A1177220A128A118312CE
:100E3E0003130619232F242F522F06308312031368
:100E4E00A4001330A300AD30A200A20B2C2FA30BD5
:100E5E002C2FA40B2C2F013083120313B0070A3052
:100E6E003002031C3B2F3C2F4A2FAF010130AE0046
:100E7E002E08A20003300310A20DFF3E031D422FC9
:100E8E000310220DAE003008AD003030AD07300833
:100E9E00AC003030AC078618552F562F6C2F06300D
:100EAE0083120313A4001330A300AD30A200A20BD3
:100EBE005E2FA30B5E2FA40B5E2F01308312031344
:100ECE00B0023008AD003030AD0706186F2F702F0E
:100EDE00962F063083120313A4001330A300AD30F7
:100EEE00A200A20B782FA30B782FA40B782F04301F
:100EFE00FC00831203133008FD00D0300A128A1151
:100F0E009C250A128A110A128A11C9220A128A1102
:100F1E0001300A128A1182220A128A119A2F861918
:100F2E00992F9A2FF62E8312031386189F2FA02F18
:100F3E00C02F01300A128A1182220A128A11BA2F88
:100F4E005D30F300F401F40A3130F50002300A127C
:100F5E008A1159240A128A11831203138619B82F83
:100F6E00B92FBA2FC02F831203138619BF2FC02F8C
:100F7E00A72F061AC32FC42FE42F01300A128A118D
:100F8E0082220A128A11DE2F4F30F300F401F40A86
:100F9E003130F50002300A128A1159240A128A11D0
:100FAE00831203138619DC2FDD2FDE2FE42F83121D
:100FBE0003138619E32FE42FCB2F83120313861905
:100FCE00E92FEA2FC42E9C2E831203138619F02FBD
:100FDE00F12F9D2E080083120313AA01AB01AC0161
:100FEE00AD01AE01AF01B001B10183010A128A1148
:020FFE00262D9E
:08400000FF3FFF3FFF3FFF3FC0
:02400E00713F00
:00000001FF
